:100000000C942A000C94081A0C942F1A0C94561A6B
:100010000C94DC170C9405180C948C180C94B318E1
:100020000C94DA180C9401190C94DB190C94470009
:100030000C9447000C9474160C949B160C94C216E6
:100040000C94151C0C9447000C9447000C9447002A
:100050000C94470011241FBECFE5D8E0DEBFCDBF12
:1000600012E0A0E6B0E0E0E7F1E502C005900D92F5
:10007000A63AB107D9F713E0A6EAB2E001C01D9293
:10008000A03BB107E1F70E94DF1F0C94B6280C9447
:100090000000EF92FF920F93DF93CF93CDB7DEB7BF
:1000A00060970FB6F894DEBF0FBECDBFA82F002318
:1000B00009F461C07E010894E11CF11C88E0F7019D
:1000C00011928A95E9F729833A834B835C836D8388
:1000D0007E83AF83988780E2801BE82FFF27E7FDB0
:1000E000F09549815A816B817C81181684F01986BC
:1000F0001A861B861C86882799278E1B9F0B04C097
:10010000440F551F661F771F8A95D2F728C0202FEE
:10011000332727FD3095DB01CA01022E04C0880F6A
:10012000991FAA1FBB1F0A94D2F789879A87AB87AA
:10013000BC8704C07695679557954795EA95D2F7A1
:100140008D819E81AF81B88504C0880F991FAA1F39
:10015000BB1F2A95D2F7482B592B6A2B7B2B4D8737
:100160005E876F87788B29853A854B855C856D85A1
:100170007E85AF8598898A2F60960FB6F894DEBF8A
:100180000FBECDBFCF91DF910F91FF90EF900895FB
:10019000EF92FF920F931F937B018C0120E030E0E0
:1001A00040E05FE40E94591188238CF0C801B70138
:1001B00020E030E040E05FE40E94250F0E9417122B
:1001C0009B01AC01205030404040504806C0C8015F
:1001D000B7010E9417129B01AC01B901CA011F911E
:1001E0000F91FF90EF900895AEE5B0E0EAEFF0E0F8
:1001F0000C946225A8E04E010894811C911CF40126
:100200006A2E11926A94E9F729833A834B835C83BF
:100210006D837E838F839887CE010996FC011192AE
:10022000AA95E9F7A986BA86CB86DC86ED86FE8696
:100230000F87188B29843A844B845C84ED84FE8478
:100240000F85188969807A808B809C806DA67EA638
:100250008FA698AA6D807E808F809884E114F10427
:100260000105110509F0B3C36214730484049504F5
:1002700008F03DC100E0201600E0300601E0400635
:1002800000E0500688F41FEF2116310441045104A8
:1002900039F030F048E0E42EF12C012D112D18C07A
:1002A000EE24FF24870114C020E0221620E032064D
:1002B00020E0420621E0520630F038E1E32EF12C36
:1002C000012D112D05C020E1E22EF12C012D112D63
:1002D000D201C1010E2C04C0B695A79597958795BC
:1002E0000A94D2F785529F4FDC012C9180E290E076
:1002F000A0E0B0E08E199F09A00BB10B7C018D012D
:10030000E21AF10801091109E114F10401051105CE
:10031000A1F10E2C04C0220C331C441C551C0A9461
:10032000D2F7A40193010E2C04C0220F331F441FE7
:10033000551F0A94D2F780E290E08E199F096DA4B0
:100340007EA48FA498A804C0969487947794679409
:100350008A95D2F7622A732A842A952AADA4BEA46C
:10036000CFA4D8A804C0AA0CBB1CCC1CDD1CEA94EA
:10037000D2F7ADA6BEA6CFA6D8AA6201EE24FF246E
:10038000CDAADEAAEFAAF8AE9201810120703070EA
:1003900009AF1AAF2BAF3CAFC401B301A70196015F
:1003A0000E942C257B018C01C401B3012DA93EA91B
:1003B0004FA958AD0E942C25C901DA013C014D011D
:1003C000C401B30129AD3AAD4BAD5CAD0E94FA2436
:1003D0009B01AC018701FF24EE24ADA4BEA4CFA4F1
:1003E000D8A8C601AA27BB2757016801A82AB92A9D
:1003F000CA2ADB2AA216B306C406D506E0F408947E
:100400006108710881089108A20CB31CC41CD51C9A
:10041000A214B304C404D50470F0A216B306C40633
:10042000D50648F408946108710881089108A20C67
:10043000B31CC41CD51CA21AB30AC40AD50AC6012F
:10044000B5012DA93EA94FA958AD0E942C257B01CD
:100450008C01C601B5012DA93EA94FA958AD0E9436
:100460002C25C901DA015C016D01C601B50129AD78
:100470003AAD4BAD5CAD0E94FA249B01AC01870103
:10048000FF24EE248DA59EA5AFA5B8A9A070B070DD
:10049000E82AF92A0A2B1B2BE216F3060407150794
:1004A000C0F40894A108B108C108D108E20CF31CFB
:1004B000041D151DE214F3040405150550F0E216A1
:1004C000F3060407150728F40894A108B108C10829
:1004D000D108D3019927882786017501E82AF92ACE
:1004E0000A2B1B2BE9AAFAAA0BAB1CABCFC4211415
:1004F00031044104510471F461E070E080E090E067
:1005000020E030E040E050E00E942C25C901DA01F3
:100510001C012D0100E0201600E0300601E040063D
:1005200000E0500688F41FEF211631044104510405
:1005300031F028F048E050E060E070E017C040E0A3
:1005400050E060E070E012C020E0221620E03206A9
:1005500020E0420621E0520628F048E150E060E049
:1005600070E004C040E150E060E070E0D201C10101
:10057000042E04C0B695A795979587950A94D2F74F
:1005800085529F4FDC012C91E0E2EE2EF12C012DE3
:10059000112DD801C701841B950BA60BB70B821B2D
:1005A0009109A109B1090097A105B10561F46401A0
:1005B0005301A218B308C408D50831E0632E712C8A
:1005C000812C912C1EC16F968FAF6F97082E04C09F
:1005D000220C331C441C551C0A94D2F7EE2DE81B48
:1005E000640153010E2E04C0D694C794B794A79407
:1005F0000A94D2F7A40193016F960FAC6F9704C0D1
:10060000220F331F441F551F0A94D2F76DA47EA4F6
:100610008FA498A80E2E04C096948794779467941C
:100620000A94D2F784017301E22AF32A042B152BD2
:10063000E9A6FAA60BA71CA73201882499249201E7
:1006400081012070307021960CAF1DAF2EAF3FAFEF
:100650002197C601B501A40193010E942C257B01BD
:100660008C01C601B501A40193010E942C25C9018A
:10067000DA0125968CAF9DAFAEAFBFAF2597BC0119
:10068000CD0121962CAD3DAD4EAD5FAD21970E94C1
:10069000FA249B01AC018701FF24EE24A9A4BAA48B
:1006A000CBA4DCA4C601AA27BB275C016D01AE2840
:1006B000BF28C02AD12AA216B306C406D50660F503
:1006C00025966CAD7DAD8EAD9FAD25976150704088
:1006D0008040904025966CAF7DAF8EAF9FAF259741
:1006E000A20CB31CC41CD51CA214B304C404D504AE
:1006F00098F0A216B306C406D50670F46150704097
:100700008040904025966CAF7DAF8EAF9FAF259710
:10071000A20CB31CC41CD51CA21AB30AC40AD50A65
:10072000C601B501A40193010E942C257B018C0117
:10073000C601B501A40193010E942C25C901DA016B
:100740003C014D01C401B30121962CAD3DAD4EAD30
:100750005FAD21970E94FA249B01AC018701FF2421
:10076000EE2489A59AA5ABA5BCA5A070B0705701D1
:100770006801A82AB92ACA2ADB2AA216B306C40627
:10078000D506E0F408946108710881089108A20C6C
:10079000B31CC41CD51CA214B304C404D50470F04B
:1007A000A216B306C406D50648F408946108710879
:1007B00081089108A20CB31CC41CD51C8DA59EA554
:1007C000AFA5B8A96F960FAC6F9704C0880F991F9B
:1007D000AA1FBB1F0A94D2F78DA79EA7AFA7B8ABDD
:1007E000A21AB30AC40AD50A2596ECACFDAC0EAD2C
:1007F0001FAD2597D70199278827682A792A8A2A41
:100800009B2A82012227332729960CAF1DAF2EAFDA
:100810003FAF2997A2019101407050702D962CAFE7
:100820003DAF4EAF5FAF2D97C601B50129962CADF8
:100830003DAD4EAD5FAD29970E942C257B018C010B
:10084000C601B50129962CAD3DAD4EAD5FAD2997E2
:100850000E942C25C901DA0161968CAF9DAFAEAF25
:10086000BFAF6197BC01CD012D962CAD3DAD4EAD16
:100870005FAD2D970E94FA249B01AC018701FF24F4
:10088000EE24ADA4BEA4CFA4D8A8C601AA27BB2736
:1008900057016801A82AB92ACA2ADB2AA216B30678
:1008A000C406D50660F561966CAD7DAD8EAD9FAD8D
:1008B0006197615070408040904061966CAF7DAF11
:1008C0008EAF9FAF6197A20CB31CC41CD51CA214A1
:1008D000B304C404D50498F0A216B306C406D50622
:1008E00070F4615070408040904061966CAF7DAF75
:1008F0008EAF9FAF6197A20CB31CC41CD51CA21A6B
:10090000B30AC40AD50AC601B50129962CAD3DAD7E
:100910004EAD5FAD29970E942C257B018C01C6014D
:10092000B50129962CAD3DAD4EAD5FAD29970E9426
:100930002C25C901DA015C016D01C601B5012D96B6
:100940002CAD3DAD4EAD5FAD2D970E94FA249B01BD
:10095000AC018701FF24EE248DA59EA5AFA5B8A903
:10096000A070B070E82AF92A0A2B1B2BE216F306B6
:1009700004071507C0F40894A108B108C108D108FC
:10098000E20CF31C041D151DE214F3040405150507
:1009900050F0E216F3060407150728F40894A1089E
:1009A000B108C108D1086196ECACFDAC0EAD1FAD2D
:1009B0006197D7019927882796018501082B192B64
:1009C0002A2B3B2B09AB1AAB2BAB3CAB62C26E1490
:1009D0007F048006910608F451C220E0E21620E070
:1009E000F20621E0020720E0120788F43FEFE31649
:1009F000F1040105110531F028F048E050E060E015
:100A000070E017C040E050E060E070E012C040E0ED
:100A1000E41640E0F40640E0040741E0140728F043
:100A200048E150E060E070E004C040E150E060E088
:100A300070E0D801C701042E04C0B695A79597951C
:100A400087950A94D2F785529F4FDC012C9130E2B2
:100A5000A32EB12CC12CD12CD601C501841B950B22
:100A6000A60BB70B821B9109A109B1090097A1053B
:100A7000B10589F4E614F7040805190508F4F2C174
:100A80006DA47EA48FA498A86214730484049504B2
:100A900008F0E8C1F3C16E968FAF6E97082E04C0C0
:100AA000EE0CFF1C001F111F0A94D2F76A2D681B61
:100AB000D201C101062E04C0B695A79597958795DA
:100AC0000A94D2F75C016D01AE28BF28C02AD12A52
:100AD000ADA2BEA2CFA2D8A6720161016E960FACE4
:100AE0006E9704C0CC0CDD1CEE1CFF1C0A94D2F7E0
:100AF000C9A2DAA2EBA2FCA264015301062E04C033
:100B0000D694C794B794A7940A94D2F7D401C3019A
:100B10006E960FAC6E9704C0880F991FAA1FBB1F5B
:100B20000A94D2F7EDA4FEA40FA518A904C0169547
:100B30000795F794E7946A95D2F737014801682A38
:100B4000792A8A2A9B2A6D8E7E8E8F8E98A2EDA09E
:100B5000FEA00FA118A538018824992498018701C7
:100B60002070307065960CAF1DAF2EAF3FAF65970C
:100B7000C601B501A40193010E942C257B018C01C3
:100B8000C601B501A40193010E942C25C901DA0117
:100B90001C012D01C201B10165962CAD3DAD4EADDC
:100BA0005FAD65970E94FA249B01AC018701FF2489
:100BB000EE24AD8CBE8CCF8CD8A0C601AA27BB2753
:100BC00057016801A82AB92ACA2ADB2AA216B30645
:100BD000C406D50600F508942108310841085108DB
:100BE000EDA0FEA00FA118A5AE0CBF1CC01ED11E0B
:100BF000AE14BF04C006D10670F0A216B306C40638
:100C0000D50648F408942108310841085108AE0C73
:100C1000BF1CC01ED11EA21AB30AC40AD50AC6013F
:100C2000B501A40193010E942C257B018C01C60112
:100C3000B501A40193010E942C25C901DA013C01F0
:100C40004D01C401B30165962CAD3DAD4EAD5FAD18
:100C500065970E94FA249B01AC018701FF24EE24D2
:100C60008D8D9E8DAF8DB8A1A070B07057016801B9
:100C7000A82AB92ACA2ADB2AA216B306C406D506B0
:100C800000F5089461087108810891086DA17EA1A2
:100C90008FA198A5A60EB71EC81ED91EA616B70608
:100CA000C806D90670F0A216B306C406D50648F4E5
:100CB00008946108710881089108A60EB71EC81E25
:100CC000D91ED601C501821B930BA40BB50B898FCE
:100CD0009A8FAB8FBC8FD10199278827640153016C
:100CE000A82AB92ACA2ADB2AA9AABAAACBAADCAAA4
:100CF000860175012FEF3FEF40E050E0E222F32242
:100D000004231523A601662777276D964CAF5DAFA8
:100D10006EAF7FAF6D97A9A0BAA0CBA0DCA06FEF9C
:100D20007FEF80E090E0A622B722C822D92289A1D5
:100D30009AA1ABA1BCA11D0144245524C801B7014F
:100D4000A60195010E94FA2469966CAF7DAF8EAF23
:100D50009FAF6997C801B701A20191010E94FA24CF
:100D60003B014C016D966CAD7DAD8EAD9FAD6D9729
:100D7000A60195010E94FA247B018C016D966CAD51
:100D80007DAD8EAD9FAD6D97A20191010E94FA24B9
:100D90005B016C01A8019701260D371D481D591DE7
:100DA00069966CAC7DAC8EAC9FAC6997C401AA27E8
:100DB000BB27280F391F4A1F5B1F2E153F05400711
:100DC000510748F4E12CF12C61E0062F112DAE0CF7
:100DD000BF1CC01ED11ECA01AA27BB27BC01CD0162
:100DE0006A0D7B1D8C1D9D1D698C7A8C8B8C9C8C57
:100DF000661677068806990640F166157705880518
:100E0000990509F043C0D9019927882769962CAD27
:100E10003DAD4EAD5FAD699740705070820F931F2E
:100E2000A41FB51F2DA53EA54FA558A96E960FACC2
:100E30006E9704C0220F331F441F551F0A94D2F728
:100E4000281739074A075B0708F509A91AA92BA92A
:100E50003CA9015010402040304009AB1AAB2BABED
:100E60003CAB14C066247724430121E030E040E02D
:100E700050E029AB3AAB4BAB5CAB0BC0662477249C
:100E8000430119AA1AAA1BAA1CAA03C06624772424
:100E90004301FE01719688E0DF011D928A95E9F712
:100EA000A9A8BAA8CBA8DCA8A98ABA8ACB8ADC8A66
:100EB0006D8A7E8A8F8A988E29A93A894B895C89A6
:100EC000662D7E898F89988DC25ADF4FE2E10C949E
:100ED0007E25ABE5B0E0EFE6F7E00C946225A8E0F4
:100EE0004E010894811C911CF4016A2E11926A949F
:100EF000E9F729833A834B835C836D837E838F83F9
:100F00009887CE010996FC011192AA95E9F7A98666
:100F1000BA86CB86DC86ED86FE860F87188B298401
:100F20003A844B845C84AD84BE84CF84D888298184
:100F30003A814B815C8169962FAF69976A963FAF82
:100F40006A976B964FAF6B976C965FAF6C976C968A
:100F50006CAC7DAC8EAC9FAC6C9769AA7AAA8BAA5C
:100F60009CAA6D817E818F8198853B014C016DAA81
:100F70007EAA8FAA98AEA114B104C104D10409F0CD
:100F800004C3621473048404950408F000C100E0F3
:100F9000201600E0300601E0400600E0500688F42C
:100FA0001FEF211631044104510439F030F088E07C
:100FB000E82EF12C012D112D18C0EE24FF248701FD
:100FC00014C040E0241640E0340640E0440641E00E
:100FD000540630F0B8E1EB2EF12C012D112D05C097
:100FE000A0E1EA2EF12C012D112DD201C1010E2C10
:100FF00004C0B695A795979587950A94D2F7855220
:101000009F4FDC012C9180E290E0A0E0B0E08E19CF
:101010009F09A00BB10B5C016D01A21AB108C108B8
:10102000D108A9AEBAAECBAEDCAEA114B104C104F6
:10103000D10409F43FC069AD062E04C0220C331C54
:10104000441C551C0A94D2F7A4019301062E04C037
:10105000220F331F441F551F0A94D2F780E290E0FD
:101060008A199B096C96CCACDDACEEACFFAC6C97EE
:1010700004C0F694E794D794C7948A95D2F7870171
:101080007601E22AF32A042B152BEDAAFEAA0FAB58
:1010900018AF6C968CAD9DADAEADBFAD6C9704C076
:1010A000880F991FAA1FBB1F6A95D2F789AB9AAB0D
:1010B000ABABBCAB320188249924B201A1016070B2
:1010C000707021964CAF5DAF6EAF7FAF21976DA969
:1010D0007EA98FA998ADA40193010E942C257B01C4
:1010E0008C016DA97EA98FA998ADA40193010E94DE
:1010F0002C25CA01B90121962CAD3DAD4EAD5FAD99
:1011000021970E94FA249B01AC018701FF24EE2461
:10111000A9A8BAA8CBA8DCA8C601AA27BB27570153
:101120006801A82AB92ACA2ADB2AA216B306C4066D
:10113000D50690F4A20CB31CC41CD51CA214B30495
:10114000C404D50448F0A216B306C406D50620F49C
:10115000A20CB31CC41CD51CA21AB30AC40AD50A1B
:10116000C601B501A40193010E942C257B018C01CD
:10117000C601B501A40193010E942C25CA01B90141
:1011800021962CAD3DAD4EAD5FAD2197BAC1211476
:1011900031044104510471F461E070E080E090E0BA
:1011A00020E030E040E050E00E942C25C901DA0147
:1011B0001C012D0100E0201600E0300601E0400691
:1011C00000E0500688F41FEF211631044104510459
:1011D00039F030F068E0E62EF12C012D112D18C009
:1011E000EE24FF24870114C040E0241640E03406BA
:1011F00040E0440641E0540630F058E1E52EF12C81
:10120000012D112D05C040E1E42EF12C012D112DF1
:10121000D201C1010E2C04C0B695A795979587956C
:101220000A94D2F785529F4FDC012C9130E2A32E15
:10123000B12CC12CD12CD601C5018E199F09A00B50
:10124000B10B7C018D01E21AF10801091109E9AE27
:10125000FAAE0BAF1CAFE114F1040105110539F42E
:1012600064015301A218B308C408D508E2C0F9AC60
:101270006896FFAE68970F2C04C0220C331C441CE8
:10128000551C0A94D2F78A2D8F1964015301082E38
:1012900004C0D694C794B794A7940A94D2F7A40133
:1012A000930104C0220F331F441F551FFA94D2F735
:1012B0006C966CAC7DAC8EAC9FAC6C9704C0969475
:1012C0008794779467948A95D2F784017301E22A10
:1012D000F32A042B152BEDA6FEA60FA718AB32019F
:1012E00088249924B201A1016070707025964CAFDA
:1012F0005DAF6EAF7FAF2597C601B501A401930125
:101300000E942C257B018C01C601B501A40193012B
:101310000E942C25CA01B90125962CAD3DAD4EADDC
:101320005FAD25970E94FA249B01AC018701FF2441
:10133000EE24ADA4BEA4CFA4D8A8C601AA27BB277B
:101340005C016D01AE28BF28C02AD12AA216B306BF
:10135000C406D50690F4A20CB31CC41CD51CA21460
:10136000B304C404D50448F0A216B306C406D506D7
:1013700020F4A20CB31CC41CD51CA21AB30AC40AC4
:10138000D50AC601B501A40193010E942C257B0159
:101390008C01C601B501A40193010E942C25CA014C
:1013A000B90125962CAD3DAD4EAD5FAD25970E94A0
:1013B000FA249B01AC018701FF24EE248DA59EA594
:1013C000AFA5B8A9A070B07057016801A82AB92AC2
:1013D000CA2ADB2AA216B306C406D50690F4A20CCC
:1013E000B31CC41CD51CA214B304C404D50448F017
:1013F000A216B306C406D50620F4A20CB31CC41C66
:10140000D51C6C96ECACFDAC0EAD1FAD6C97689620
:101410000FAC689704C0EE0CFF1C001F111F0A944C
:10142000D2F7E9AAFAAA0BAB1CABA21AB30AC40AF8
:10143000D50A320188249924B201A101607070702C
:1014400029964CAF5DAF6EAF7FAF2997C601B5014E
:10145000A40193010E942C257B018C01C601B501DA
:10146000A40193010E942C25CA01B90129962CAD33
:101470003DAD4EAD5FAD29970E94FA249B01AC01B2
:101480008701FF24EE24A9A8BAA8CBA8DCA8C6012E
:10149000AA27BB2757016801A82AB92ACA2ADB2A2A
:1014A000A216B306C406D50690F4A20CB31CC41C45
:1014B000D51CA214B304C404D50448F0A216B30684
:1014C000C406D50620F4A20CB31CC41CD51CA21A59
:1014D000B30AC40AD50AC601B501A40193010E944A
:1014E0002C257B018C01C601B501A40193010E944A
:1014F0002C25CA01B90129962CAD3DAD4EAD5FAD8D
:1015000029970E94FA249B01AC018701FF24EE2455
:1015100089A99AA9ABA9BCA9A070B070E82AF92A38
:101520000A2B1B2BE216F3060407150790F4E20CB6
:10153000F31C041D151DE214F3040405150548F001
:10154000E216F3060407150720F4E20CF31C041D51
:10155000151DE21AF30A040B150BD801C70109ACDB
:1015600004C0B695A795979587950A94D2F7898B6D
:101570009A8BAB8BBC8B1D8A1E8A1F8A188E282FD4
:101580003A894B895C896D890CC36A147B048C048D
:101590009D0408F409C300E0A01600E0B00601E0D5
:1015A000C00600E0D00688F41FEFA116B104C10404
:1015B000D10439F030F028E0E22EF12C012D112D6C
:1015C00018C0EE24FF24870114C040E0A41640E0B8
:1015D000B40640E0C40641E0D40630F098E1E92EBC
:1015E000F12C012D112D05C080E1E82EF12C012DEB
:1015F000112DD601C5010E2C04C0B695A79597955F
:1016000087950A94D2F785529F4FDC012C9180E296
:1016100090E0A0E0B0E08E199F09A00BB10B821BF7
:101620009109A109B1090097A105B10509F04FC0C1
:10163000A614B704C804D90458F06C96ECACFDAC01
:101640000EAD1FAD6C97E214F3040405150568F1A7
:101650006C96ECACFDAC0EAD1FAD6C97E218F308C8
:1016600004091509A40193012A193B094C095D09D4
:10167000AA24BB2465016C966CAD7DAD8EAD9FAD8B
:101680006C976E157F058007910728F4B1E0AB2EAB
:10169000B12CC12CD12CDA01C9018A199B09AC09E2
:1016A000BD098DAB9EABAFABB8AFE98AFA8A0B8BA5
:1016B0001C8B6DA87EA88FA898AC6D8A7E8A8F8AB5
:1016C000988E2E2D3A894B895C896DA96AC26796DE
:1016D0008FAF6797A6019501082E04C0220F331F14
:1016E000441F551F0A94D2F7A0E2AA2EA81A6696A4
:1016F000AFAE6697D201C10104C0B695A795979584
:101700008795AA94D2F76C017D01C22AD32AE42AD4
:10171000F52AC9A6DAA6EBA6FCA682017101679696
:101720000FAC679704C0EE0CFF1C001F111F0A943A
:10173000D2F7EDA2FEA20FA318A76401530166968B
:101740000FAC669704C0D694C794B794A7940A9434
:10175000D2F7A401930167960FAC679704C0220FDC
:10176000331F441F551F0A94D2F76C968CAD9DAD64
:10177000AEADBFAD6C9766960FAC669704C0B695DC
:10178000A795979587950A94D2F73C014D01622A57
:10179000732A842A952A69A27AA28BA29CA26C96AB
:1017A000ECACFDAC0EAD1FAD6C9767960FAC6797B8
:1017B00004C0EE0CFF1C001F111F0A94D2F7ED8E1F
:1017C000FE8E0F8F18A349A55AA56BA57CA53B01DA
:1017D00088249924607070702D964CAF5DAF6EAF09
:1017E0007FAF2D97C601B501A40193010E942C255E
:1017F0007B018C01C601B501A40193010E942C2537
:10180000C901DA011C012D01C201B1012D962CADD7
:101810003DAD4EAD5FAD2D970E94FA249B01AC010A
:101820008701FF24EE24A9A0BAA0CBA0DCA0C601AA
:10183000AA27BB2757016801A82AB92ACA2ADB2A86
:10184000A216B306C406D50600F50894210831088F
:1018500041085108E9A4FAA40BA51CA5AE0CBF1CB5
:10186000C01ED11EAE14BF04C006D10670F0A21671
:10187000B306C406D50648F4089421083108410887
:101880005108AE0CBF1CC01ED11EA21AB30AC40A56
:10189000D50AC601B501A40193010E942C257B0144
:1018A0008C01C601B501A40193010E942C25C90138
:1018B000DA013C014D01C401B3012D962CAD3DADC3
:1018C0004EAD5FAD2D970E94FA249B01AC018701BC
:1018D000FF24EE2489A19AA1ABA1BCA1A070B07095
:1018E00057016801A82AB92ACA2ADB2AA216B30618
:1018F000C406D50600F508946108710881089108AE
:1019000069A57AA58BA59CA5A60EB71EC81ED91ED3
:10191000A616B706C806D90670F0A216B306C40606
:10192000D50648F408946108710881089108A60E4C
:10193000B71EC81ED91ED601C501821B930BA40B6E
:10194000B50B898F9A8FAB8FBC8FD10199278827D0
:1019500084017301E82AF92A0A2B1B2B4FEFA42ECE
:101960004FEFB42EC12CD12CAE20BF20C022D122EB
:101970007801002711276DA07EA08FA098A44FEFBB
:101980005FEF60E070E064227522862297228DA1CD
:101990009EA1AFA1B8A5BD018827992765966CAF18
:1019A0007DAF8EAF9FAF6597C601B501A4019301CE
:1019B0000E94FA2461966CAF7DAF8EAF9FAF6197A6
:1019C000C601B50165962CAD3DAD4EAD5FAD6597D9
:1019D0000E94FA241B012C01C801B701A401930144
:1019E0000E94FA245B016C01C801B70165962CAD19
:1019F0003DAD4EAD5FAD65970E94FA247B018C0131
:101A0000A6019501220D331D441D551D61966CAC38
:101A10007DAC8EAC9FAC6197C401AA27BB27280F71
:101A2000391F4A1F5B1F2A153B054C055D0548F40D
:101A3000812C912CE1E0AE2EB12CE80CF91C0A1D92
:101A40001B1DCA01AA27BB2757016801A80EB91E92
:101A5000CA1EDB1EA9013327222761968CAD9DADDE
:101A6000AEADBFAD6197A070B070280F391F4A1F8F
:101A70005B1FE98CFA8C0B8D1C8DEA14FB040C05A2
:101A80001D0570F0AE14BF04C006D10669F56D8D5A
:101A90007E8D8F8D98A1621773078407950720F5B7
:101AA000DA01C9016DA07EA08FA098A486199709BC
:101AB000A809B909E9A4FAA40BA51CA5AE18BF088A
:101AC000C00AD10AEE24FF248701281739074A07E4
:101AD0005B0728F421E0E22EF12C012D112DAE1828
:101AE000BF08C00AD10A02C0DA01C9016D8C7E8C20
:101AF0008F8C98A0681A790A8A0A9B0A498D5A8D98
:101B00006B8D7C8D4A195B096C097D095A016B014B
:101B10002224332421016D8D7E8D8F8D98A1661531
:101B200077058805990528F481E0282E312C412C71
:101B3000512C86017501E218F30804091509A80162
:101B4000970166960FAC669704C0220F331F441F9F
:101B5000551F0A94D2F7D401C30167960FAC67975B
:101B600004C0B695A795979587950A94D2F7282B28
:101B7000392B4A2B5B2B298B3A8B4B8B5C8B6796D3
:101B80000FAC679704C016950795F794E7940A94ED
:101B9000D2F7ED8AFE8A0F8B188F3A894B895C89C0
:101BA0006E2D7E898F89988DC55ADF4FE2E10C94A6
:101BB0007E25A0E0B0E0EFEDFDE00C946225DC01B5
:101BC0002B01FA019C91923008F439C1EB01888114
:101BD000823008F433C1943069F4843009F02FC1A5
:101BE00011969C9111978981981709F428C1A3ED4A
:101BF000B0E025C1843009F421C18230A9F49230CB
:101C000009F01DC19A01AD0188E0EA010990AE0119
:101C1000E90109929E018150C1F7E2018981119683
:101C20009C918923818308C1923009F407C11296DF
:101C30002D903C901397EB018A819B811496AD9077
:101C4000BD90CD90DC901797EC80FD800E811F81B8
:101C50009101281B390BB90137FF04C0662777278C
:101C6000621B730B603271050CF061C01216130613
:101C70006CF537014801062E04C09694879477943A
:101C800067940A94D2F721E030E040E050E004C0CD
:101C9000220F331F441F551F6A95D2F72150304041
:101CA000404050402E213F21402351232115310532
:101CB0004105510521F021E030E040E050E079019C
:101CC0008A01E628F728082919293CC0232BD1F1DD
:101CD000260E371E35014601062E04C096948794C1
:101CE000779467940A94D2F721E030E040E050E026
:101CF00004C0220F331F441F551F6A95D2F721508D
:101D00003040404050402A213B214C215D2121158B
:101D100031054105510521F021E030E040E050E07F
:101D200059016A01A628B728C828D9280BC08215EE
:101D300093052CF01C01AA24BB24650103C0EE24EA
:101D4000FF24870111969C91D20111968C919817CE
:101D500009F445C0992339F0A80197012A193B09D4
:101D60004C095D0906C0A60195012E193F09400BDB
:101D7000510B57FD08C011823382228224833583A0
:101D8000468357831DC081E0818333822282882766
:101D90009927DC01821B930BA40BB50B84839583DD
:101DA000A683B7830DC0220F331F441F551F248302
:101DB00035834683578382819381019793838283FE
:101DC0002481358146815781DA01C9010197A10932
:101DD000B1098F5F9F4FAF4FBF4328F30BC0918373
:101DE00033822282EA0CFB1C0C1D1D1DE482F5824D
:101DF0000683178383E08083248135814681578160
:101E000057FF1AC0C901AA2797FDA095BA2F817064
:101E10009070A070B0705695479537952795822B96
:101E2000932BA42BB52B84839583A683B7838281C0
:101E30009381019693838283DF0101C0D201CD019A
:101E4000CDB7DEB7E2E10C947E25A0E2B0E0EBE294
:101E5000FFE00C946E2569837A838B839C832D83AA
:101E60003E834F835887E9E0EE2EF12CEC0EFD1EE9
:101E7000CE010196B7010E9408148E010F5E1F4F1C
:101E8000CE010596B8010E9408148A8991E089273D
:101E90008A8BC701B801AE01475E5F4F0E94D90D22
:101EA0000E943313A096E6E00C948A25A0E2B0E0ED
:101EB000ECE5FFE00C946E2569837A838B839C8329
:101EC0002D833E834F835887F9E0EF2EF12CEC0EE3
:101ED000FD1ECE010196B7010E9408148E010F5E0F
:101EE0001F4FCE010596B8010E940814C701B80122
:101EF000AE01475E5F4F0E94D90D0E943313A0963A
:101F0000E6E00C948A25A0E2B0E0E9E8FFE00C945A
:101F1000622569837A838B839C832D833E834F83E1
:101F20005887CE010196BE01675F7F4F0E9408145B
:101F3000CE010596BE016F5E7F4F0E940814998501
:101F4000923088F089898230C8F0943019F4823058
:101F500051F404C0843029F4923081F483ED90E090
:101F6000C6C0923049F420E09A858A89981321E00E
:101F70002A87CE010996BBC0823049F420E09A85B9
:101F80008A89981321E02A8BCE014196B0C02D8416
:101F90003E844F8458886D887E888F88988CEE2484
:101FA000FF248701AA24BB24650140E050E060E0E3
:101FB00070E0E0E0F0E0C10181709070892BE9F001
:101FC000E60CF71C081D191D9A01AB012A0D3B1DDB
:101FD0004C1D5D1D80E090E0A0E0B0E0E614F70449
:101FE0000805190520F481E090E0A0E0B0E0BA0116
:101FF000A901480F591F6A1F7B1FAA0CBB1CCC1CD0
:10200000DD1C97FE08C081E090E0A0E0B0E0A82AC7
:10201000B92ACA2ADB2A3196E032F10549F0660C6A
:10202000771C881C991C5694479437942794C3CFE7
:10203000FA85EA892B893C898B859C85280F391F75
:102040002E5F3F4F17C0CA0181709070892B61F0DD
:1020500016950795F794E79480E090E0A0E0B0E84B
:10206000E82AF92A0A2B1B2B7695679557954795F1
:102070002F5F3F4F77FDE7CF0CC0440F551F661F02
:10208000771F17FD4160EE0CFF1C001F111F215030
:102090003040403090E0590790E0690790E47907BC
:1020A00060F32B8F3C8FDB01CA018F779070A0709B
:1020B000B07080349105A105B10561F447FD0AC0F7
:1020C000E114F1040105110529F0405C5F4F6F4FE9
:1020D0007F4F40781A8EFE1711F081E08A8F4D8F66
:1020E0005E8F6F8F78A383E0898FCE0149960E941F
:1020F0003313A096E2E10C947E25A8E1B0E0E3E87A
:10210000F0E10C946A2569837A838B839C832D8309
:102110003E834F835887B9E0EB2EF12CEC0EFD1E69
:10212000CE010196B7010E9408148E010F5E1F4F69
:10213000CE010596B8010E9408142985223008F4C2
:102140007EC03989323010F4B8017CC08A859A8902
:1021500089278A87243011F0223031F4231709F0BF
:102160006EC063ED70E06EC0343039F41D861E869B
:102170001F86188A1C861B8604C0323021F484E036
:102180008987B7015FC02B853C858B899C89281B7B
:10219000390B3C872B87ED84FE840F851889AD8829
:1021A000BE88CF88D88CEA14FB040C051D0540F4CA
:1021B000EE0CFF1C001F111F215030403C872B8765
:1021C00020E030E040E050E080E090E0A0E0B0E4CB
:1021D00060E070E0EA14FB040C051D0540F0282BBC
:1021E000392B4A2B5B2BEA18FB080C091D09B69505
:1021F000A79597958795EE0CFF1C001F111F6F5F29
:102200007F4F6F31710531F7DA01C9018F77907017
:10221000A070B07080349105A105B10561F427FD6F
:102220000AC0E114F1040105110529F0205C3F4FBB
:102230004F4F5F4F20782D873E874F87588BBE01C9
:10224000675F7F4FCB010E9433136896EAE00C94DE
:102250008625A8E1B0E0EFE2F1E10C946E256983F8
:102260007A838B839C832D833E834F83588789E0B9
:10227000E82EF12CEC0EFD1ECE010196B7010E9456
:1022800008148E010F5E1F4FCE010596B8010E9403
:1022900008148985823040F08989823028F0C7018E
:1022A000B8010E94801401C081E06896E6E00C94B9
:1022B0008A25A8E1B0E0EFE5F1E10C946E25698391
:1022C0007A838B839C832D833E834F83588789E059
:1022D000E82EF12CEC0EFD1ECE010196B7010E94F6
:1022E00008148E010F5E1F4FCE010596B8010E94A3
:1022F00008148985823040F08989823028F0C7012E
:10230000B8010E94801401C08FEF6896E6E00C943B
:102310008A25A8E1B0E0EFE8F1E10C946E2569832D
:102320007A838B839C832D833E834F83588789E0F8
:10233000E82EF12CEC0EFD1ECE010196B7010E9495
:1023400008148E010F5E1F4FCE010596B8010E9442
:1023500008148985823040F08989823028F0C701CD
:10236000B8010E94801401C081E06896E6E00C94F8
:102370008A25A8E0B0E0EFEBF1E10C946B259B011E
:10238000AC0183E08983DA01C9018827B7FD839511
:102390009927AA27BB27B82E2115310541055105DC
:1023A00019F482E089833AC08823A9F0203080E0C4
:1023B000380780E0480780E8580729F460E070E0BB
:1023C00080E09FEC30C0EE24FF248701E21AF30A7C
:1023D000040B150B02C079018A018EE1C82ED12CA5
:1023E000DC82CB82ED82FE820F831887C801B701A1
:1023F0000E94E41201971816190684F4082E04C0EE
:10240000EE0CFF1C001F111F0A94D2F7ED82FE8212
:102410000F831887C81AD90ADC82CB82BA82CE0110
:1024200001960E9433132896E9E00C948725ACE0CE
:10243000B0E0EDE1F2E10C94722569837A838B833D
:102440009C83CE010196BE016B5F7F4F0E940814F2
:102450008D81823061F1823050F1843021F48E819F
:10246000882351F12EC02F81388537FD20C06E8121
:102470002F3131051CF06623F9F023C08EE190E086
:10248000821B930B29853A854B855C8504C0569544
:102490004795379527958A95D2F76623B1F05095E1
:1024A0004095309521953F4F4F4F5F4F0EC020E034
:1024B00030E040E050E009C02FEF3FEF4FEF5FE723
:1024C00004C020E030E040E050E8B901CA012C9699
:1024D000E2E00C948E25A8E0B0E0E1E7F2E10C9494
:1024E0006A257B018C01611571058105910519F43F
:1024F00082E0898360C083E089838EE1C82ED12C7D
:10250000DC82CB82ED82FE820F831887C801B7017F
:102510000E94E412FC013197F7FF3BC022273327CA
:102520002E1B3F0B57016801022E04C0D694C7949E
:10253000B794A7940A94D2F740E050E060E070E0CE
:1025400081E090E0A0E0B0E004C0880F991FAA1FCE
:10255000BB1F2A95D2F70197A109B1098E219F21AE
:10256000A023B1230097A105B10521F041E050E07F
:1025700060E070E04A295B296C297D294D835E83E8
:102580006F8378878EE190E08E1B9F0B9C838B83FB
:1025900012C0309781F00E2E04C0EE0CFF1C001FFD
:1025A000111F0A94D2F7ED82FE820F831887CE1A8C
:1025B000DF0ADC82CB821A82CE0101960E9433139D
:1025C0002896EAE00C948625EF92FF920F931F93D2
:1025D0007B018C0180E0E81680E0F80681E00807C6
:1025E00080E0180788F48FEFE816F1040105110563
:1025F00031F028F088E090E0A0E0B0E017C080E083
:1026000090E0A0E0B0E012C080E0E81680E0F806BC
:1026100080E0080781E0180728F088E190E0A0E05A
:10262000B0E004C080E190E0A0E0B0E020E230E063
:1026300040E050E0281B390B4A0B5B0B04C0169599
:102640000795F794E7948A95D2F7F701E552FF4F83
:102650008081281B310941095109C9011F910F913E
:10266000FF90EF900895DF92EF92FF920F931F93E8
:10267000FC01E480F58006811781D1808081823061
:1026800048F480E090E0A0E1B0E0E82AF92A0A2BC3
:102690001B2BA5C0843009F49FC0823021F4EE24A6
:1026A000FF24870105C0E114F1040105110519F4A7
:1026B000E0E0F0E096C0628173819FEF62387907B5
:1026C0000CF05BC022E83FEF261B370B2A313105A7
:1026D0002CF020E030E040E050E02AC0B801A70133
:1026E000022E04C076956795579547950A94D2F7C0
:1026F00081E090E0A0E0B0E004C0880F991FAA1F1D
:10270000BB1F2A95D2F70197A109B1098E219F21FC
:10271000A023B1230097A105B10521F081E090E04D
:10272000A0E0B0E09A01AB01282B392B4A2B5B2BA0
:10273000DA01C9018F779070A070B0708034910574
:10274000A105B10539F427FF09C0205C3F4F4F4F69
:102750005F4F04C0215C3F4F4F4F5F4FE0E0F0E020
:102760002030A0E03A07A0E04A07A0E45A0710F0A2
:10277000E1E0F0E079018A0127C06038710564F575
:10278000FB01E158FF4FD801C7018F779070A0700F
:10279000B07080349105A105B10539F4E7FE0DC094
:1027A00080E490E0A0E0B0E004C08FE390E0A0E01F
:1027B000B0E0E80EF91E0A1F1B1F17FF05C0169593
:1027C0000795F794E794319687E016950795F79467
:1027D000E7948A95D1F705C0EE24FF248701EFEF37
:1027E000F0E06E2F679566276795902F9F77D794B7
:1027F000DD24D7948E2F8695492F462B582F5D299F
:10280000B701CA011F910F91FF90EF90DF900895DB
:10281000FC01DB01408151812281622F6F7770E0E2
:10282000221F2227221F9381892F880F822B282F76
:1028300030E0991F9927991F11969C9311972115A4
:102840003105A9F5411551056105710511F482E0C5
:1028500037C082E89FEF13969C938E9312979A014C
:10286000AB0167E0220F331F441F551F6A95D1F754
:1028700083E08C930DC0220F331F441F551F129607
:102880008D919C911397019713969C938E93129719
:10289000203080E0380780E0480780E4580758F38C
:1028A00014962D933D934D935C93179708952F3F66
:1028B000310579F4411551056105710519F484E07C
:1028C0008C93089564FF03C081E08C9312C01C9226
:1028D00010C02F57304013963C932E93129783E0ED
:1028E0008C9387E0440F551F661F771F8A95D1F799
:1028F000706414964D935D936D937C931797089530
:102900001F93DC01FB019C91923008F447C0808149
:10291000823008F443C0943051F411961C918430F5
:1029200099F58181682F70E0611B71093FC0843087
:1029300021F0923031F48230B9F18181882389F11C
:102940002DC011961C9111978230F1F081811817DA
:10295000D9F412962D913C9113978281938182171D
:10296000930794F028173907BCF014968D919D9128
:102970000D90BC91A02D2481358146815781281767
:1029800039074A075B0718F4112341F00AC0821780
:102990009307A407B50740F4112319F061E070E034
:1029A00005C06FEF7FEF02C060E070E0CB011F91C8
:1029B00008955D9BFECF8CB908955F9BFECF8CB1CF
:1029C000089520E004C05D9BFECFECB92F5FFC01B1
:1029D000E20FF11DE081EE23B1F70895DC015F9B6A
:1029E000FECF8CB18C93FD0190E09F5F5F9BFECF8B
:1029F0008CB1818331969A30C1F71A961C92089552
:102A00002F923F924F925F926F927F928F929F92FE
:102A1000AF92BF92CF92DF92EF92FF920F931F93EC
:102A2000DF93CF93CDB7DEB72A970FB6F894DEBF0A
:102A30000FBECDBF2B833C834D835E836F8378872E
:102A400089879A87222433244424552466247724B2
:102A50008824992419829101A201B301C40101E0E3
:102A60000E944900122FF32EE42ED52EC62EB72E2B
:102A7000A82E892E02E00E944900922E910E21E09C
:102A8000911608F020E03F0DE1E03F1508F0E0E08E
:102A9000722E730E21E0731608F020E0E22B4E0D2B
:102AA00031E04E1508F030E06E2E640E21E0641621
:102AB00008F020E0322B5D0D41E05D1508F040E0AC
:102AC000532E550E21E0551608F020E0422B6C0DD8
:102AD00031E06C1508F030E0442E460E21E0461639
:102AE00008F020E0322B7B0D41E07B1508F040E040
:102AF000332E370E21E0371608F020E0422B8A0DE6
:102B000031E08A1508F030E0242E280E21E0281646
:102B100008F020E0322B980D832F890F8A832B81B8
:102B20003C814D815E816F81788589859A85AAE097
:102B3000AA2EBB24CC24DD24EE24FF2400E010E0E8
:102B40000E946907122F190DF1E0121708F0F0E04A
:102B5000232F270DE1E0231708F0E0E0BF2FB20F8D
:102B600031E0B21708F030E0E32B242F260DF1E01E
:102B7000241708F0F0E0AE2FA20F31E0A21708F002
:102B800030E0F32B252F250D41E0251708F040E01C
:102B90000F2F020F31E0021708F030E0432B262FF1
:102BA000240D51E0261708F050E0642F620F31E049
:102BB000621708F030E0532B272F230D41E0271731
:102BC00008F040E0520F31E0521708F030E0432B9C
:102BD000282F220D31E0281708F030E0420F81E065
:102BE000421708F080E0382BEA81E90F212E3B2EB6
:102BF0004A2E502E662E752E842E9E2E930E2B81DD
:102C00003C814D815E816F81788589859A85FAE066
:102C1000AF2EBB24CC24DD24EE24FF2400E010E002
:102C20000E94F4002B833C834D835E836F837887FF
:102C300089879A87F981FF5FF983822F832B842B01
:102C4000852B862B872B9985892BEA858E2B09F07E
:102C500002CF5D9BFECF9101A201B301C401EAE066
:102C6000AE2EBB24CC24DD24EE24FF2400E010E0B3
:102C70000E946907205D2CB9F981F150F983FF2387
:102C800059F09101A201B301C4010E94F40019019D
:102C90002A013B014C01DDCF2A960FB6F894DEBF26
:102CA0000FBECDBFCF91DF911F910F91FF90EF909D
:102CB000DF90CF90BF90AF909F908F907F906F905C
:102CC0005F904F903F902F9008959093A70280932C
:102CD000A60208959093AB028093AA020895909360
:102CE000A9028093A80208951F920F920FB60F9227
:102CF00011242F933F934F935F936F937F938F9301
:102D00009F93AF93BF93EF93FF93E091A602F0914F
:102D1000A7020995FF91EF91BF91AF919F918F917C
:102D20007F916F915F914F913F912F910F900FBEC7
:102D30000F901F9018951F920F920FB60F921124AB
:102D40002F933F934F935F936F937F938F939F93B3
:102D5000AF93BF93EF93FF93E091A802F091A90284
:102D60000995FF91EF91BF91AF919F918F917F91C5
:102D70006F915F914F913F912F910F900FBE0F90E8
:102D80001F9018951F920F920FB60F9211242F9338
:102D90003F934F935F936F937F938F939F93AF93E3
:102DA000BF93EF93FF93E091AA02F091AB020995D4
:102DB000FF91EF91BF91AF919F918F917F916F9113
:102DC0005F914F913F912F910F900FBE0F901F90E9
:102DD00018954F925F927F928F929F92AF92BF927F
:102DE000CF92DF92EF92FF920F931F93DF93CF93D7
:102DF000CDB7DEB7DE0152964D905D90772477C057
:102E0000E53209F070C0A72CA394F201EA0DF11D80
:102E10008081843691F0853620F4833609F05CC0D9
:102E200007C08C3609F43FC0853709F055C016C07D
:102E30008C915D9BFECF129653C08D010E5F1F4F8C
:102E40008D919C91FC01FF0FEE0BFE2F9C014E2FEC
:102E50005E2F6E2F7E2F8E2F9E2F39C081818C3654
:102E6000A9F47A2C739434E0832E912C8A0E9B1E45
:102E7000AD90BD90CD90DC909501A60160E070E032
:102E800080E090E00E940015D40130C08D010E5FFB
:102E90001F4F4D915C919A0140E050E060E070E07E
:102EA00080E090E014C08D010C5F1F4F8D919D91CB
:102EB0000D90BC91A02D6C017D01FF0CCC08DC2C89
:102EC00076019C01AD016C2D7C2D8C2D9C2D0E94DA
:102ED00000157A2CD8010AC0882341F05D9BFECFF3
:102EE0008CB97A2C03C05D9BFECFECB97394F201D0
:102EF000E70DF11DE081EE2309F082CFCF91DF9144
:102F00001F910F91FF90EF90DF90CF90BF90AF9007
:102F10009F908F907F905F904F90089586E880BD3E
:102F2000579856985598549A539A83E389B983E0F1
:102F300060E040E00E94C11A83E061E041E00E944D
:102F4000C11A089585B5887F85BD85B5866085BD24
:102F5000089585B5887F85BD089584BD089583BD96
:102F6000089585B5877B886085BD8AEF83BD83B56D
:102F700008959093AD028093AC0208959093AF02B0
:102F80008093AE02089563B570E080E090E024E69F
:102F900030E040E050E00E94FA242FEF30E040E0C3
:102FA00050E00E942C25822F089560E070E080E0C0
:102FB00090E0089584B508951F920F920FB60F9276
:102FC00011242F933F934F935F936F937F938F932E
:102FD0009F93AF93BF93EF93FF93E091AE02F09175
:102FE000AF02309709F00995FF91EF91BF91AF9132
:102FF0009F918F917F916F915F914F913F912F9111
:103000000F900FBE0F901F9018951F920F920FB642
:103010000F9211242F933F934F935F936F937F935E
:103020008F939F93AF93BF93EF93FF93E091AC0285
:10303000F091AD020995FF91EF91BF91AF919F91F2
:103040008F917F916F915F914F913F912F910F9051
:103050000FBE0F901F90189585B5886485BD89B700
:10306000806489BF83E067E041E00E94C11A85B5B2
:103070008F7E85BD85B5806285BD85B58F7785BD21
:10308000089508959BBD8ABD089599BD88BD089592
:1030900097BD86BD08959093B3028093B2020895C0
:1030A0009093B5028093B40208959093B7028093F1
:1030B000B60208959093B1028093B00208958EB540
:1030C000887F82608EBD08958EB5887F8EBD0895FD
:1030D000089580E0089580E0089560E070E080E069
:1030E00090E0089560E070E080E090E0089526B5FB
:1030F00037B5C9010895882319F0813041F404C01F
:103100008EB58F7B8EBD08958EB580648EBD08957B
:1031100089B78F7D89BF08951F920F920FB60F92C6
:1031200011242F933F934F935F936F937F938F93CC
:103130009F93AF93BF93EF93FF93E091B002F09111
:10314000B1020995FF91EF91BF91AF919F918F913E
:103150007F916F915F914F913F912F910F900FBE93
:103160000F901F9018951F920F920FB60F92112477
:103170002F933F934F935F936F937F938F939F937F
:10318000AF93BF93EF93FF93E091B402F091B50238
:103190000995FF91EF91BF91AF919F918F917F9191
:1031A0006F915F914F913F912F910F900FBE0F90B4
:1031B0001F9018951F920F920FB60F9211242F9304
:1031C0003F934F935F936F937F938F939F93AF93AF
:1031D000BF93EF93FF93E091B602F091B702099588
:1031E000FF91EF91BF91AF919F918F917F916F91DF
:1031F0005F914F913F912F910F900FBE0F901F90B5
:1032000018951F920F920FB60F9211242F933F9390
:103210004F935F936F937F938F939F93AF93BF93DE
:10322000EF93FF93E091B202F091B3020995FF9101
:10323000EF91BF91AF919F918F917F916F915F912E
:103240004F913F912F910F900FBE0F901F901895A7
:103250008FB58E7F82608FBD8EB588618EBD89B738
:10326000806189BF83E065E041E00E94C11A83E08C
:1032700064E041E00E94C11A8FB58F7B80688FBDEA
:10328000089588E083BF83E083BF82E089BF8DE734
:103290008CBF08952FB7F8946091B8027091B9026D
:1032A0008091BA029091BB022FBF0895AF92BF9256
:1032B000CF92DF92EF92FF920F931F932FB7F89464
:1032C0006091B8027091B9028091BA029091BB02EC
:1032D0002FBFE2B628EE33E040E050E00E94FA242F
:1032E0000E946B125B016C01FF240027F7FC009524
:1032F000102FC801B7010E94B91120E030E040E86A
:1033000050E40E94830F9B01AC01C601B5010E94ED
:10331000560F0E94C8009B01AC01CA011F910F917A
:10332000FF90EF90DF90CF90BF90AF90089589B756
:10333000826089BF089589B78D7F89BF08958FB74F
:10334000F8941092B8021092B9021092BA02109238
:10335000BB028FBF0895EFB7F8942091B802309167
:10336000B9024091BA025091BB02260F371F481F85
:10337000591F2093B8023093B9024093BA02509378
:10338000BB02EFBF0895EFB7F8942091B8023091D7
:10339000B9024091BA025091BB02261B370B480B71
:1033A000590B2093B8023093B9024093BA0250935C
:1033B000BB02EFBF08951F920F920FB60F92112418
:1033C0008F939F93AF93BF938091B8029091B9026E
:1033D000A091BA02B091BB020196A11DB11D8093CC
:1033E000B8029093B902A093BA02B093BB02BF9106
:1033F000AF919F918F910F900FBE0F901F901895D6
:103400008FB780688FBF08958FB78F778FBF08956C
:103410001F920F920FB60F9211242F933F934F9349
:103420005F936F937F938F939F93AF93BF93EF932C
:10343000FF93E091BC02F091BD020995FF91EF91DD
:10344000BF91AF919F918F917F916F915F914F91BC
:103450003F912F910F900FBE0F901F9018951F92C4
:103460000F920FB60F9211242F933F934F935F93B8
:103470006F937F938F939F93AF93BF93EF93FF933C
:10348000E091BE02F091BF020995FF91EF91BF91CB
:10349000AF919F918F917F916F915F914F913F91EC
:1034A0002F910F900FBE0F901F9018951F920F92A3
:1034B0000FB60F9211242F933F934F935F936F9307
:1034C0007F938F939F93AF93BF93EF93FF93E0917D
:1034D000C002F091C1020995FF91EF91BF91AF91A8
:1034E0009F918F917F916F915F914F913F912F911C
:1034F0000F900FBE0F901F9018959093BD02809370
:10350000BC0208959093BF028093BE0208959093E9
:10351000C1028093C002089581E062E040E00E9411
:10352000C11A81E062E041E00E941F1B8BB78062FC
:103530008BBF84B78F7B84BF089583E063E040E056
:103540000E94C11A83E063E041E00E941F1B8BB719
:1035500080688BBF85B78460877F85BF089583E0CF
:1035600062E040E00E94C11A83E062E041E00E9414
:103570001F1B8BB780648BBF85B78E7F826085BF32
:1035800008958130E9F0813030F0823071F183307C
:1035900009F054C03FC08AB321E030E0062E02C0DB
:1035A000220F331F0A94E2F720952823842F90E0FE
:1035B00002C0880F991F6A95E2F7282B2ABB08954D
:1035C00087B321E030E0062E02C0220F331F0A9499
:1035D000E2F720952823842F90E002C0880F991FDE
:1035E0006A95E2F7282B27BB089584B321E030E0E9
:1035F000062E02C0220F331F0A94E2F720952823DB
:10360000842F90E002C0880F991F6A95E2F7282B5B
:1036100024BB089581B321E030E0062E02C0220FC2
:10362000331F0A94E2F720952823842F90E002C0EC
:10363000880F991F6A95E2F7282B21BB08958130E6
:10364000E9F0813030F0823071F1833009F054C0FC
:103650003FC08BB321E030E0062E02C0220F331FA3
:103660000A94E2F720952823842F90E002C0880F67
:10367000991F6A95E2F7282B2BBB089588B321E0A8
:1036800030E0062E02C0220F331F0A94E2F7209585
:103690002823842F90E002C0880F991F6A95E2F7D3
:1036A000282B28BB089585B321E030E0062E02C008
:1036B000220F331F0A94E2F720952823842F90E0ED
:1036C00002C0880F991F6A95E2F7282B25BB089541
:1036D00082B321E030E0062E02C0220F331F0A948D
:1036E000E2F720952823842F90E002C0880F991FCD
:1036F0006A95E2F7282B22BB0895813049F081308A
:1037000028F0823039F08330B1F40DC089B303C0A2
:1037100086B301C083B390E002C0959587956A9502
:10372000E2F78170089580B390E002C09595879587
:103730006A95E2F781700895813049F0813028F070
:10374000823039F0833041F406C06ABB089567BB0C
:10375000089564BB089561BB0895813049F08130BC
:1037600028F0823039F0833041F406C06BBB0895F5
:1037700068BB089565BB089562BB0895813091F0E0
:10378000813028F08230C9F0833061F521C02BB33D
:1037900081E090E002C0880F991F6A95E2F7282720
:1037A0002BBB089528B381E090E002C0880F991FD9
:1037B0006A95E2F7282728BB089525B381E090E0B9
:1037C00002C0880F991F6A95E2F7282725BB089544
:1037D00022B381E090E002C0880F991F6A95E2F75A
:1037E000282722BB089587B180648F7587B93598E3
:1037F00086B1876086B9379A089597B1907E982BE5
:1038000097B9369A3699FECF24B135B1C9010895DA
:103810009093C3028093C20287B1807E862B87B9C2
:10382000339A369A3699FECF08951F920F920FB6AB
:103830000F9211242F933F934F935F936F937F9336
:103840008F939F93AF93BF93EF93FF93E091C20247
:10385000F091C302309721F084B195B10995339866
:10386000FF91EF91BF91AF919F918F917F916F9158
:103870005F914F913F912F910F900FBE0F901F902E
:103880001895AF92BF92CF92DF92EF92FF920F9373
:103890001F93DF93CF930F92CDB7DEB7882309F044
:1038A0005AC083E066E041E00E941F1B8AE18A95CE
:1038B000F1F783E066E040E00E941F1B83E067E0D1
:1038C0000E947D1B8823D1F310E000E090E0FF24EC
:1038D000EE24DD24CC24BB24B2E0AB2E33C08A2DF1
:1038E0008A95F1F7E12FEF5F81E0E11708F080E0C2
:1038F000782F700F81E0701708F080E0682F690F53
:1039000081E0691708F080E0582F5F0D81E05F15B6
:1039100008F080E0482F4E0D81E04E1508F080E061
:10392000382F3D0D81E03D1508F080E08C0D21E041
:103930008C1508F020E01E2F072F962F7A01D32E2A
:10394000C82EB20E83E067E099830E947D1B9981A7
:10395000813029F2C1C0813009F05AC080E061E0B5
:1039600041E00E941F1B8AE18A95F1F780E061E047
:1039700040E00E941F1B80E064E00E947D1B8823C2
:10398000D1F310E000E090E0FF24EE24DD24CC240D
:10399000BB24A2E0AA2E33C08A2D8A95F1F7E12F2D
:1039A000EF5F81E0E11708F080E0782F700F81E091
:1039B000701708F080E0682F690F81E0691708F040
:1039C00080E0582F5F0D81E05F1508F080E0482F00
:1039D0004E0D81E04E1508F080E0382F3D0D81E05E
:1039E0003D1508F080E08C0D21E08C1508F020E0FA
:1039F0001E2F072F962F7A01D32EC82EB20E80E0ED
:103A000064E099830E947D1B9981813029F264C012
:103A1000823049F010E000E090E0FF24EE24DD2445
:103A2000CC24BB2459C080E062E041E00E941F1B0F
:103A30008AE18A95F1F780E062E040E00E941F1B76
:103A400080E065E00E947D1B8823D1F310E000E058
:103A500090E0FF24EE24DD24CC24BB24F2E0AF2E42
:103A600033C08A2D8A95F1F7E12FEF5F81E0E117EE
:103A700008F080E0782F700F81E0701708F080E088
:103A8000682F690F81E0691708F080E0582F5F0DFB
:103A900081E05F1508F080E0482F4E0D81E04E1563
:103AA00008F080E0382F3D0D81E03D1508F080E002
:103AB0008C0D21E08C1508F020E01E2F072F962F8B
:103AC0007A01D32EC82EB20E80E065E099830E9461
:103AD0007D1B9981813029F2212F302F492F5F2DB5
:103AE0006E2D7D2D8C2D9B2DE9E0AE2EBB24CC249C
:103AF000DD24EE24FF2400E010E00E94F4000F908B
:103B0000CF91DF911F910F91FF90EF90DF90CF90B9
:103B1000BF90AF90089580E061E041E00E94C11A3B
:103B200083E066E041E00E94C11A80E062E041E08B
:103B30000E94C11A08954F925F926F927F928F9266
:103B40009F92AF92BF92CF92DF92EF92FF920F932C
:103B50001F93DF93CF93CDB7DEB7CF5FD0400FB6C3
:103B6000F894DEBF0FBECDBF80E690E00E94E11466
:103B70008E010F5F1F4FC8010E94EE1420918D032C
:103B800030918E0340918F0350919003CC24DD241B
:103B900066247724AA24BB2428015FC08C3209F054
:103BA00055C00894C11CD11C4F014AC0F501E55A0B
:103BB000FC4FD4018C9180830894611C711C089483
:103BC000A11CB11C11968C91B3E0CB16D10441F528
:103BD0008C3231F410925B0394E0C92ED12C2BC0AF
:103BE0008E3259F1CA01B90120E030E040E251E4DF
:103BF0000E94830F7B018C01F501E55AFC4F608127
:103C000070E0882777FD8095982F0E94B9119B015D
:103C1000AC01C801B7010E94560F9B01AC010DC059
:103C20008C3259F4E4E0CE16D10439F410925B03DF
:103C300085E0C82ED12CAA24BB240894811C911C99
:103C4000C6010397029708F4B1CF07C0F5E0CF167D
:103C5000D10454F40894611C711CF201E60DF71DA7
:103C60008081882309F09ACF20938D0330938E03AF
:103C700040938F0350939003C150DF4F0FB6F894D9
:103C8000DEBF0FBECDBFCF91DF911F910F91FF908F
:103C9000EF90DF90CF90BF90AF909F908F907F90EC
:103CA0006F905F904F900895EF92FF920F931F9344
:103CB0008BE690E00E94E1140E949B1D87E790E054
:103CC0000E94E11480E197E228EC30E0F90131979D
:103CD000F1F70197D9F782E890E00E94E11489E9B1
:103CE00090E00E94E1148DB79EB708970FB6F89444
:103CF0009EBF0FBE8DBFEDB7FEB7319600E513E056
:103D0000ADB7BEB712961C930E9311972CEBE22E13
:103D100020E0F22EF382E28280919203909193034D
:103D2000A0919403B091950384839583A683B78370
:103D30000E94FA258DB79EB708960FB6F8949EBFDD
:103D40000FBE8DBFC8010E94E1148FEB90E00E946E
:103D5000E114ADB7BEB718970FB6F894BEBF0FBE4B
:103D6000ADBFEDB7FEB7319606E913E012961C938E
:103D70000E931197F382E28280918D0390918E03CE
:103D8000A0918F03B091900384839583A683B7831A
:103D90000E94FA258DB79EB708960FB6F8949EBF7D
:103DA0000FBE8DBFC8010E94E11480ED97E028ECA2
:103DB00030E0F9013197F1F70197D9F78AE10E94D4
:103DC000D9148FEF9FEF28EC30E0F9013197F1F72C
:103DD0000197D9F71F910F91FF90EF9008950E94DE
:103DE0008E1781EC90E00E94E11480E197E228ECCC
:103DF00030E0F9013197F1F70197D9F785EC90E0C0
:103E00000E94E11480E197E228EC30E0F90131975B
:103E1000F1F70197D9F708950F931F93082F8FE1BA
:103E20009EE40E9448180E945F188AE0089F800163
:103E30001124C80186579D4F0E9445181F910F916C
:103E400008950F931F93082F8FE19EE40E94481856
:103E50000E945F188AE0089F80011124C8018657DC
:103E60009D4F0E9442181F910F9108950F931F9329
:103E7000CF93DF938FE19EE40E9448180E945F1861
:103E8000CAE8D2E000E21EE4CE010E944218C80156
:103E90000197F1F7219689E0C53CD807A9F78AE890
:103EA00092E00E944218DF91CF911F910F910895E7
:103EB0000E94281908950E941F1B089581E061E067
:103EC00040E00E941F1B81E062E040E00E941F1B57
:103ED00081E063E040E00E941F1B81E064E040E07D
:103EE0000E941F1B089581E061E040E00E941F1BBB
:103EF00081E062E041E00E941F1B81E063E041E05D
:103F00000E941F1B81E064E040E00E941F1B089597
:103F100081E061E041E00E941F1B81E062E040E03F
:103F20000E941F1B81E063E040E00E941F1B81E0B4
:103F300064E041E00E941F1B089581E061E041E0E0
:103F40000E941F1B81E062E040E00E941F1B81E095
:103F500063E040E00E941F1B81E064E040E00E94BB
:103F60001F1B089581E061E041E00E941F1B81E07A
:103F700062E040E00E941F1B81E063E041E00E949C
:103F80001F1B81E064E040E00E941F1B089581E058
:103F900061E041E00E94C11A81E062E041E00E94DC
:103FA000C11A81E063E041E00E94C11A81E064E04F
:103FB00041E00E94C11A08950E94541E08950E9473
:103FC0009D1A8CED9FE10E94821A0E94C71F0E94D9
:103FD0008B1D0E94EF1E0E94001A0E9489210E94E0
:103FE0004F23FFCF24EA30E74DE75FE30E94830FC2
:103FF0000895AF92BF92CF92DF92EF92FF920F930C
:104000001F937B018C01D22EC32EB42EA52E0E94AD
:10401000591187FF04C0ED2CFC2C0B2D1A2DB70174
:10402000C8011F910F91FF90EF90DF90CF90BF904C
:10403000AF9008952F923F924F925F926F927F922E
:104040008F929F92AF92BF92CF92DF92EF92FF92A8
:104050000F931F93DF93CF93CDB7DEB72A970FB699
:10406000F894DEBF0FBECDBF8B0124E0000F111FFF
:104070002A95E1F700531D4FCC24DD2476010F2E45
:10408000F0E04F2EF0E05F2EF0E86F2EFFEB7F2E7A
:10409000F02D198680E48A879CE1292E86EC382E43
:1040A000F801B080A1809280838069857A85C10102
:1040B0002B2D3A2D492D582D0E94591187FF04C0F0
:1040C000B986AA86292C382C69857A85C1012B2DC1
:1040D0003A2D492D582D0E942911882331F4C7010A
:1040E000B6010E946B122B013C010894C11CD11C2B
:1040F000E11CF11C0C5F1F4FF4E0CF16D104E1046A
:10410000F10471F64D825E826F82788689859A8588
:10411000D10189839A83AB83BC8329813A814B8106
:104120005C816D817E818F8198852A960FB6F89487
:10413000DEBF0FBECDBFCF91DF911F910F91FF90DA
:10414000EF90DF90CF90BF90AF909F908F907F9037
:104150006F905F904F903F902F9008952F923F92D5
:104160004F925F926F927F928F929F92AF92BF9287
:10417000CF92DF92EF92FF920F931F93DF93CF9333
:10418000CDB7DEB764970FB6F894DEBF0FBECDBFD4
:104190001B012C01E98AFA8A0B8B1C8B86017501A5
:1041A000FB01EE0FFF1FEE0FFF1F89899A89E80FB1
:1041B000F91FEE0FFF1FEE0FFF1FE053FD4F808131
:1041C0009181A281B3818093A8039093A903A093C6
:1041D000AA03B093AB03CA01B9010E941A20298730
:1041E0003A874B875C876D877E878F87988BDE0148
:1041F0001196FE01399688E001900D928150E1F709
:10420000A980BA80CB80DC80A092A003B092A103E9
:10421000C092A203D092A3036091A8037091A90356
:104220008091AA039091AB0326E636E646E65FE36B
:104230000E94830F3B014C01C801B7010E946B1221
:104240007B018C01C601B50120E030E040E05FE376
:104250000E94830F9B01AC01C801B7010E94560F59
:104260002DEC3CEC4CEC5DE30E94830F9B01AC0118
:10427000C401B3010E94560FDC019B01AC012093E5
:10428000A4033093A5034093A6035093A703F10121
:10429000EE0FFF1FEE0FFF1F29893A89E20FF31F70
:1042A000EE0FFF1FEE0FFF1FE053FD4FCB0180838A
:1042B0009183A283B38364960FB6F894DEBF0FBEDA
:1042C000CDBFCF91DF911F910F91FF90EF90DF90C5
:1042D000CF90BF90AF909F908F907F906F905F90A6
:1042E0004F903F902F9008950E94EA2564E670E079
:1042F0000E941925AA2797FDA095BA2FBC01CD01D0
:104300000E94B91120E030E048EC52E40E947D1098
:1043100008952F923F924F925F926F927F928F9269
:104320009F92AF92BF92CF92DF92EF92FF920F9344
:104330001F93DF93CF93CDB7DEB764970FB6F89492
:10434000DEBF0FBECDBF198A1A8A1B8A1C8AF6C02F
:104350000E94B21F81E00E94411C59016A0125E1BF
:10436000A216B104C104D10450F50E945E1F8091D1
:10437000C4029091C502A091C602B091C7020196F5
:10438000A11DB11D87709070A070B0708093C8029D
:104390009093C902A093CA02B093CB020E94881FD7
:1043A0000E94742120912102309122024091230227
:1043B000509124020E948911181684F422C082E0D0
:1043C0000E94411C59016A0135E1A316B104C104E0
:1043D000D10408F0BDCF0E949D1FBACF0E94EA25EC
:1043E00064E070E00E941925AA2797FDA095BA2FD6
:1043F0008093CC029093CD02A093CE02B093CF02D3
:1044000029C06091C4027091C5028091C60290914A
:10441000C7020E941A2029873A874B875C876D87DD
:104420007E878F87988BDE011196FE01399688E092
:1044300001900D928150E1F76D817E818F81988589
:104440000E94C8006093CC027093CD028093CE028C
:104450009093CF022090C4023090C5024090C602D3
:104460005090C702E090CC02F090CD020091CE02B5
:104470001091CF02F101EE0FFF1FEE0FFF1FEE0DA7
:10448000FF1DEE0FFF1FEE0FFF1FEB5DFD4F608165
:104490007181828193816093AC037093AD038093AB
:1044A000AE039093AF036090C8027090C9028090F1
:1044B000CA029090CB020E94C8005B016C01C2014D
:1044C000B101A40193010E94AE208091C802909195
:1044D000C902A091CA02B091CB028093C40290930A
:1044E000C502A093C602B093C702609121027091E9
:1044F0002202809123029091240224EA30E74DE7C2
:104500005FE30E94830F60932102709322028093E5
:1045100023029093240288EE93E0E8ECF0E03197D8
:10452000F1F70197D1F789899A89AB89BC890196FE
:10453000A11DB11D898B9A8BAB8BBC8B80911D0209
:1045400090911E02A0911F02B091200229893A8900
:104550004B895C89281739074A075B0708F4F8CEAE
:1045600064960FB6F894DEBF0FBECDBFCF91DF913A
:104570001F910F91FF90EF90DF90CF90BF90AF9081
:104580009F908F907F906F905F904F903F902F9073
:1045900008954F925F926F927F928F929F92AF9207
:1045A000BF92CF92DF92EF92FF920F931F9382E020
:1045B0000E94411C29013A0110ED812E17E0912E35
:1045C000C4010197F1F780E00E94411C59016A0182
:1045D000C4010197F1F781E00E94411CC901DA0191
:1045E00020E1A216B104C104D10428F14597A10528
:1045F000B10588F060E070E080E090E020E14216D4
:1046000051046104710420F461E070E080E090E006
:104610009B01AC0133C080E1481651046104710470
:1046200028F022E030E040E050E028C023E030E015
:1046300040E050E023C04597A105B10580F020E19E
:10464000421651046104710428F024E030E040E097
:1046500050E014C025E030E040E050E00FC080E1C1
:10466000481651046104710428F026E030E040E06F
:1046700050E004C027E030E040E050E0B901CA015A
:104680001F910F91FF90EF90DF90CF90BF90AF9070
:104690009F908F907F906F905F904F900895CF92F2
:1046A000DF92EF92FF920F931F93DF93CF93CDB7DB
:1046B000DEB760970FB6F894DEBF0FBECDBF6E01B8
:1046C0000894C11CD11C09E0E02EF12CEC0EFD1E5B
:1046D00008EC10E00E94C9220E941A2029873A871C
:1046E0004B875C876D877E878F87988BD601F70114
:1046F00088E001900D928150E1F76D817E818F817C
:1047000098850E94C8006093CC027093CD0280937C
:10471000CE029093CF02611571058105910519F4C0
:104720000E94B21FD7CF613071058105910519F440
:104730000E94731FCFCF623071058105910519F476
:104740000E94881FC7CF633071058105910519F458
:104750000E949D1FBFCF0E945E1F80E395E7F80176
:104760003197F1F70197D9F7B5CF2F923F924F923A
:104770005F926F927F928F929F92AF92BF92CF92F1
:10478000DF92EF92FF920F931F93DF93CF93CDB7FA
:10479000DEB764970FB6F894DEBF0FBECDBF198A9F
:1047A0001A8A1B8A1C8AFBC00E94B21F0E94C9225F
:1047B0006093C4027093C5028093C6029093C702AF
:1047C000611571058105910589F30E94742120917D
:1047D00021023091220240912302509124020E9432
:1047E000891118169CF00E94EA2564E070E00E948E
:1047F0001925AA2797FDA095BA2F8093CC029093F4
:10480000CD02A093CE02B093CF0229C06091C40222
:104810007091C5028091C6029091C7020E941A2031
:1048200029873A874B875C876D877E878F87988B30
:10483000DE011196FE01399688E001900D928150BB
:10484000E1F76D817E818F8198850E94C800609319
:10485000CC027093CD028093CE029093CF028091D0
:10486000CC029091CD02A091CE02B091CF028130C6
:104870009105A105B10591F081309105A105B10522
:1048800050F082309105A105B10559F00397A105BB
:10489000B10561F409C00E94B21F08C00E94731FD5
:1048A00005C00E94881F02C00E949D1F0E94C9224D
:1048B0006093C8027093C9028093CA029093CB029E
:1048C00080ED97E0E8ECF0E03197F1F70197D1F750
:1048D0000E945E1F2090C4023090C5024090C60224
:1048E0005090C702E090CC02F090CD020091CE0231
:1048F0001091CF02F101EE0FFF1FEE0FFF1FEE0D23
:10490000FF1DEE0FFF1FEE0FFF1FEB5DFD4F6081E0
:104910007181828193816093AC037093AD03809326
:10492000AE039093AF036090C8027090C90280906C
:10493000CA029090CB020E94C8005B016C01C201C8
:10494000B101A40193010E94AE20609121027091F7
:104950002202809123029091240224EA30E74DE75D
:104960005FE30E94830F6093210270932202809381
:1049700023029093240288E893E1E8ECF0E0319779
:10498000F1F70197D1F729893A894B895C892F5F23
:104990003F4F4F4F5F4F298B3A8B4B8B5C8B8091F6
:1049A0001D0290911E02A0911F02B0912002298940
:1049B0003A894B895C89281739074A075B0708F44D
:1049C000F3CE64960FB6F894DEBF0FBECDBFCF9185
:1049D000DF911F910F91FF90EF90DF90CF90BF90EC
:1049E000AF909F908F907F906F905F904F903F908F
:1049F0002F900895629FD001739FF001829FE00D78
:104A0000F11D649FE00DF11D929FF00D839FF00D4D
:104A1000749FF00D659FF00D9927729FB00DE11DF9
:104A2000F91F639FB00DE11DF91FBD01CF011124D6
:104A3000089597FB092E07260AD077FD04D02ED0C3
:104A400006D000201AF4709561957F4F0895F6F70F
:104A5000909581959F4F0895A1E21A2EAA1BBB1B2A
:104A6000FD010DC0AA1FBB1FEE1FFF1FA217B3073A
:104A7000E407F50720F0A21BB30BE40BF50B661F50
:104A8000771F881F991F1A9469F760957095809514
:104A900090959B01AC01BD01CF010895AA1BBB1BE2
:104AA00051E107C0AA1FBB1FA617B70710F0A61B2E
:104AB000B70B881F991F5A95A9F780959095BC014F
:104AC000CD0108952F923F924F925F926F927F9205
:104AD0008F929F92AF92BF92CF92DF92EF92FF920E
:104AE0000F931F93CF93DF93CDB7DEB7CA1BDB0BBA
:104AF0000FB6F894DEBF0FBECDBF09942A8839885F
:104B000048885F846E847D848C849B84AA84B98465
:104B1000C884DF80EE80FD800C811B81AA81B98171
:104B2000CE0FD11D0FB6F894DEBF0FBECDBFED0185
:104B30000895A0E0B0E0EFE9F5E20C946A25EC01FD
:104B4000A880B980CA80DB80A114B104C104D1045B
:104B500041F484E2A82E89EDB82E8BE5C82E87E0BB
:104B6000D82EC601B5012DE133EF41E050E00E949F
:104B70009B2827EA31E440E050E00E94FA247B01C0
:104B80008C01C601B5012DE133EF41E050E00E94F8
:104B90009B28CA01B9012CEE34EF4FEF5FEF0E9462
:104BA000FA246E0D7F1D801F911F97FF04C0615076
:104BB000704080409048688379838A839B839B01FF
:104BC0003F77C901CDB7DEB7EAE00C9486250E9495
:104BD000992508958BED91E00E9499250895A0E014
:104BE000B0E08093DB019093DC01A093DD01B093F2
:104BF000DE010895AEE0B0E0E0E0F6E20C9470254E
:104C00000D891E8986E08C831A8309838FEF9FE7C5
:104C10009E838D839E01275E3F4FCE0101966F8953
:104C2000788DA9010E941E262F813885020F131F3F
:104C3000F80110822E96E4E00C948C25ABE0B0E0F5
:104C4000E4E2F6E20C9462253C012B015A01FC01DE
:104C500017821682838181FD03C06FEF7FEFC6C18B
:104C60009AE0892E1E010894211C311CF301238136
:104C7000F20123FD859123FF81912F01882309F4FF
:104C8000B2C1853239F423FD859123FF81912F0133
:104C9000853229F490E0B3010E941128E7CF982FC4
:104CA000FF24EE249924FFE1FF15D0F09B3269F038
:104CB0009C3228F4903259F0933291F40EC09D3218
:104CC00049F0903369F441E024C052E0F52A84E0D1
:104CD000F82A28C098E0F92A25C0E0E1FE2A22C07F
:104CE000F7FC29C0892F80538A3070F4F6FE05C086
:104CF000989C902C1124980E15C0E89CE02C11244F
:104D0000E80EF0E2FF2A0EC09E3229F4F6FC6BC1D9
:104D100040E4F42A07C09C3619F450E8F52A02C092
:104D2000983649F4F20123FD959123FF91912F01CB
:104D3000992309F0B8CF892F8554833018F0805219
:104D4000833038F444E050E0A40EB51E5FE359838D
:104D50000FC0933631F0933779F0933509F056C090
:104D600020C0F5018081898342E050E0A40EB51E89
:104D7000610101E010E012C0F501C080D180F6FCB5
:104D800003C06FEF7FEF02C0692D70E042E050E09A
:104D9000A40EB51EC6010E9406288C015FE7F5220D
:104DA00014C0F501C080D180F6FC03C06FEF7FEF27
:104DB00002C0692D70E042E050E0A40EB51EC601AD
:104DC0000E94FB278C0150E8F52AF3FE07C01AC0A9
:104DD00080E290E0B3010E941128EA948E2D90E0C9
:104DE00008171907A8F30EC0F601F7FC8591F7FE26
:104DF00081916F0190E0B3010E941128E110EA94C3
:104E0000015010400115110579F7EAC0943611F0F0
:104E1000993669F5F7FE08C0F5012081318142819C
:104E2000538184E090E00AC0F501808191819C016A
:104E3000442737FD4095542F82E090E0A80EB91E1C
:104E40009FE6F92257FF09C050954095309521956E
:104E50003F4F4F4F5F4FE0E8FE2ACA01B901A10161
:104E60002AE030E00E943D28D82ED21840C0953765
:104E700029F41F2D1F7E2AE030E01DC01F2D197F51
:104E80009F3661F0903720F4983509F0ACC00FC020
:104E9000903739F0983709F0A6C004C028E030E018
:104EA0000AC0106114FD146020E130E004C014FD5C
:104EB000166020E132E017FF08C0F50160817181C2
:104EC0008281938144E050E008C0F50180819181A6
:104ED000BC0180E090E042E050E0A40EB51EA101CC
:104EE0000E943D28D82ED2188FE7F82EF122F6FE28
:104EF0000BC05EEFF522D91438F4F4FE07C0F2FCC3
:104F000005C08FEEF82202C01D2D01C0192DF4FE40
:104F10000DC0FE01ED0DF11D8081803319F499EE75
:104F2000F92208C01F5FF2FE05C003C08F2D8678EE
:104F300009F01F5F0F2DF3FC14C0F0FE0FC01E150B
:104F400010F09D2C0BC09D2C9E0C911A1E2D06C09E
:104F500080E290E0B3010E9411281F5F1E15C0F38C
:104F600004C01E1510F4E11A01C0EE2404FF0FC0A6
:104F700080E390E0B3010E94112802FF1DC001FDF3
:104F800003C088E790E00EC088E590E00BC0802F5A
:104F9000867891F001FF02C08BE201C080E2F7FC4D
:104FA0008DE290E0B3010E94112806C080E390E0FA
:104FB000B3010E9411289A94D914C0F3DA94F10134
:104FC000ED0DF11D808190E0B3010E941128DD20DC
:104FD000A9F706C080E290E0B3010E941128EA948C
:104FE000EE20C1F743CEF30166817781CB012B968A
:104FF000E2E10C947E25FC010590615070400110A7
:10500000D8F7809590958E0F9F1F0895FC016150F1
:10501000704001900110D8F7809590958E0F9F1FDA
:1050200008950F931F93CF93DF938C01EB018B8136
:1050300081FF1BC082FF0DC02E813F818C819D812D
:105040002817390764F4E881F9810193F983E8832B
:1050500006C0E885F985802F0995892B31F48E816A
:105060009F8101969F838E8302C00FEF1FEFC801BF
:10507000DF91CF911F910F910895FA01AA2728304F
:1050800051F1203181F1E8946F936E7F6E5F7F4F15
:105090008F4F9F4FAF4FB1E03ED0B4E03CD0670F91
:1050A000781F891F9A1FA11D680F791F8A1F911DE4
:1050B000A11D6A0F711D811D911DA11D20D009F434
:1050C00068943F912AE0269F11243019305D319376
:1050D000DEF6CF010895462F4770405D4193B3E05F
:1050E0000FD0C9F7F6CF462F4F70405D4A3318F006
:1050F000495D31FD4052419302D0A9F7EACFB4E0B7
:10510000A6959795879577956795BA95C9F700976E
:105110006105710508959B01AC010A2E069457950F
:10512000479537952795BA95C9F7620F731F841F66
:10513000951FA01D089597FB092E05260ED057FD3B
:1051400004D08ADC0AD0001C38F450954095309584
:1051500021953F4F4F4F5F4F0895F6F790958095FB
:10516000709561957F4F8F4F9F4F0895F894FFCFB3
:1051700041542B43474E53494E460041542B43471D
:105180004E53494E460D0041542B434D47463D3149
:105190000D0041542B434D47533D223031313237BE
:1051A000313533393633220D00687474703A2F2F3D
:1051B0006D6170732E676F6F676C652E636F6D2FF7
:1051C0006D6170733F713D6C6F633A002566002C12
:1051D0000041540D0041542B43474E535057523D0C
:1051E000310D000000000000000000000102020379
:1051F000030303040404040404040405050505056D
:105200000505050505050505050505060606060649
:10521000060606060606060606060606060606062E
:105220000606060606060606060606070707070719
:1052300007070707070707070707070707070707FE
:1052400007070707070707070707070707070707EE
:1052500007070707070707070707070707070707DE
:1052600007070707070707070707070808080808C9
:1052700008080808080808080808080808080808AE
:10528000080808080808080808080808080808089E
:10529000080808080808080808080808080808088E
:1052A000080808080808080808080808080808087E
:1052B000080808080808080808080808080808086E
:1052C000080808080808080808080808080808085E
:1052D000080808080808080808080808080808084E
:1052E0000808080808080808080808010000003035
:1052F00031313237313533393633000000000000A8
:10530000000000000000000000000000000000009D
:10531000000000000000000000000000000000008D
:1053200000000000000000000000000000C80000B5
:10533000000000803F00002041000000400000000D
:1053400040000020C1000000C000002041000020FB
:10535000C1000020C1000020C10000204100002049
:1053600041000000C0000020C100002041000020DA
:10537000C1000000C000000040000020C10000206B
:1053800041000020C100002041000020C100002099
:10539000C1000000C0000020C1000020C1000020AA
:1053A00041000000C0000020C1000020C10000201A
:0653B000C10000204100D5
:00000001FF
